Microchip MPLAB XC8 Compiler V2.10 ()

Linker command line:

-W-3 --edf=C:\Program Files (x86)\Microchip\xc8\v2.10\pic\dat\en_msgs.txt \
  -cs -h+dist/default/production\MorseBlink_Code.X.production.sym \
  --cmf=dist/default/production\MorseBlink_Code.X.production.cmf -z \
  -Q12F752 -oC:\Users\landowne\AppData\Local\Temp\s924.2 \
  --defsym=__MPLAB_BUILD=1 \
  -Mdist/default/production/MorseBlink_Code.X.production.map -E1 -ver=XC8 \
  --acfsm=1493 -ASTACK=040h-06Fh -pstack=STACK -ACODE=00h-03FFh \
  -ASTRCODE=00h-03FFh -ASTRING=00h-0FFhx4 -ACONST=00h-0FFhx4 \
  -AENTRY=00h-0FFhx4 -ACOMMON=070h-07Fh -ABANK0=040h-06Fh -ARAM=040h-06Fh \
  -AABS1=040h-07Fh -ASFR0=00h-03Fh -ASFR1=080h-0EFh -ASFR2=0100h-016Fh \
  -ASFR3=0180h-01EFh -preset_vec=00h,intentry,init,end_init -ppowerup=CODE \
  -pcinit=CODE -pfunctab=ENTRY -ACONFIG=02007h-02007h -pconfig=CONFIG \
  -DCONFIG=2 -AIDLOC=02000h-02003h -pidloc=IDLOC -DIDLOC=2 -DCODE=2 \
  -DSTRCODE=2 -DSTRING=2 -DCONST=2 -DENTRY=2 -k \
  C:\Users\landowne\AppData\Local\Temp\s924.o \
  dist/default/production\MorseBlink_Code.X.production.o 

Object code version is 3.11

Machine type is 12F752



                Name                               Link     Load   Length Selector   Space Scale
C:\Users\landowne\AppData\Local\Temp\s924.o
                end_init                              0        0        1        0       0
dist/default/production\MorseBlink_Code.X.production.o
                cinit                               3F6      3F6        A      7EC       0
                text5                               32A      32A        2      654       0
                text4                               33F      33F       22      67E       0
                text3                               361      361       2C      6C2       0
                text2                               38D      38D       69      71A       0
                text1                               332      332        D      664       0
                maintext                            32C      32C        6      658       0
                cstackCOMMON                         78       78        3       70       1
                bssCOMMON                            70       70        8       70       1
                strings                               1        1       B8        2       0

TOTAL           Name                               Link     Load   Length     Space
        CLASS   STACK          

        CLASS   CODE           
                end_init                              0        0        1         0
                cinit                               3F6      3F6        A         0
                text5                               32A      32A        2         0
                text4                               33F      33F       22         0
                text3                               361      361       2C         0
                text2                               38D      38D       69         0
                text1                               332      332        D         0
                maintext                            32C      32C        6         0

        CLASS   STRCODE        

        CLASS   STRING         
                strings                               1        1       B8         0

        CLASS   CONST          

        CLASS   ENTRY          

        CLASS   COMMON         
                cstackCOMMON                         78       78        3         1
                bssCOMMON                            70       70        8         1

        CLASS   BANK0          

        CLASS   RAM            

        CLASS   ABS1           
                abs_s1                               7E       7E        2         1

        CLASS   SFR0           

        CLASS   SFR1           

        CLASS   SFR2           

        CLASS   SFR3           

        CLASS   CONFIG         

        CLASS   IDLOC          

        CLASS   BANK3          

        CLASS   BANK2          

        CLASS   BANK1          

        CLASS   EEDATA         



SEGMENTS        Name                           Load    Length   Top    Selector   Space  Class     Delta

                reset_vec                      000000  000001  000001         0       0  CODE        2
                strings                        000001  0000B8  0000B9         2       0  STRING      2
                bssCOMMON                      000070  00000B  00007B        70       1  COMMON      1
                text5                          00032A  000002  00032C       654       0  CODE        2
                maintext                       00032C  000006  000332       658       0  CODE        2
                text1                          000332  00000D  00033F       664       0  CODE        2
                text4                          00033F  000022  000361       67E       0  CODE        2
                text3                          000361  00002C  00038D       6C2       0  CODE        2
                text2                          00038D  000069  0003F6       71A       0  CODE        2
                cinit                          0003F6  00000A  000400       7EC       0  CODE        2


UNUSED ADDRESS RANGES

        Name                Unused          Largest block    Delta
        BANK0            040-06F            30           1
        CODE             0B9-329           271           2
        COMMON           07B-07D             3           1
        CONFIG           2007-2007             1           2
        CONST            0B9-329           100           2
        ENTRY            0B9-329           100           2
        IDLOC            2000-2003             4           2
        RAM              040-06F            30           1
        SFR0             000-03F            40           1
        SFR1             080-0EF            70           1
        SFR2             100-16F            70           1
        SFR3             180-1EF            70           1
        STACK            040-06F            30           1
        STRCODE          0B9-329           271           2
        STRING           0B9-329           100           2

                                  Symbol Table

MorseTableLookup@Letter    cstackCOMMON 079
_ANSELA                    (abs)        185
_BaseVal                   bssCOMMON    077
_EnterSleep                text5        32A
_HLT1CON0bits              (abs)        115
_HLT1CON1                  (abs)        116
_HLTPR1                    (abs)        114
_INTCONbits                (abs)        00B
_Initialize                text4        33F
_LATAbits                  (abs)        105
_MorseArray                bssCOMMON    075
_MorseArrayIndex           bssCOMMON    073
_MorseArrayLength          bssCOMMON    074
_MorseDisplay              text2        38D
_MorseInit                 text1        332
_MorseTable                strings      046
_MorseTableLengths         strings      007
_MorseTableLookup          text3        361
_NumRepeats                bssCOMMON    071
_OPTION_REGbits            (abs)        081
_OSCCONbits                (abs)        08F
_PIE1bits                  (abs)        08C
_Sentence                  strings      085
_SentenceIndex             bssCOMMON    076
_SleepCycles               bssCOMMON    072
_SleepMode                 bssCOMMON    070
_TRISA                     (abs)        085
__Habs1                    abs1         000
__Hbank0                   bank0        000
__Hbank1                   bank1        000
__Hbank2                   bank2        000
__Hbank3                   bank3        000
__HbssCOMMON               bssCOMMON    000
__Hcinit                   cinit        400
__Hclrtext                 clrtext      000
__Hcode                    code         000
__Hcommon                  common       000
__Hconfig                  config       000
__HcstackCOMMON            cstackCOMMON 000
__Heeprom_data             eeprom_data  000
__Hend_init                end_init     001
__Hfunctab                 functab      000
__Hidloc                   idloc        000
__Hinit                    init         000
__Hintentry                intentry     000
__Hmaintext                maintext     000
__Hpowerup                 powerup      000
__Hram                     ram          000
__Hreset_vec               reset_vec    000
__Hsfr0                    sfr0         000
__Hsfr1                    sfr1         000
__Hsfr2                    sfr2         000
__Hsfr3                    sfr3         000
__Hspace_0                 (abs)        400
__Hspace_1                 (abs)        07B
__Hspace_2                 (abs)        000
__Hspace_3                 (abs)        000
__Hstack                   stack        000
__Hstrings                 strings      000
__Htext                    text         000
__Labs1                    abs1         000
__Lbank0                   bank0        000
__Lbank1                   bank1        000
__Lbank2                   bank2        000
__Lbank3                   bank3        000
__LbssCOMMON               bssCOMMON    000
__Lcinit                   cinit        3F6
__Lclrtext                 clrtext      000
__Lcode                    code         000
__Lcommon                  common       000
__Lconfig                  config       000
__LcstackCOMMON            cstackCOMMON 000
__Leeprom_data             eeprom_data  000
__Lend_init                end_init     000
__Lfunctab                 functab      000
__Lidloc                   idloc        000
__Linit                    init         000
__Lintentry                intentry     000
__Lmaintext                maintext     000
__Lpowerup                 powerup      000
__Lram                     ram          000
__Lreset_vec               reset_vec    000
__Lsfr0                    sfr0         000
__Lsfr1                    sfr1         000
__Lsfr2                    sfr2         000
__Lsfr3                    sfr3         000
__Lspace_0                 (abs)        000
__Lspace_1                 (abs)        000
__Lspace_2                 (abs)        000
__Lspace_3                 (abs)        000
__Lstack                   stack        000
__Lstrings                 strings      000
__Ltext                    text         000
__S0                       (abs)        400
__S1                       (abs)        07B
__S2                       (abs)        000
___int_sp                  stack        000
___latbits                 (abs)        000
___sp                      stack        000
___stackhi                 (abs)        000
___stacklo                 (abs)        000
__end_of_EnterSleep        text5        32C
__end_of_Initialize        text4        361
__end_of_MorseDisplay      text2        3F6
__end_of_MorseInit         text1        33F
__end_of_MorseTable        strings      085
__end_of_MorseTableLengths strings      046
__end_of_MorseTableLookup  text3        38D
__end_of_Sentence          strings      0B9
__end_of__initialization   cinit        3FE
__end_of__stringtab        strings      007
__end_of_main              maintext     332
__initialization           cinit        3F6
__pbssCOMMON               bssCOMMON    070
__pcstackCOMMON            cstackCOMMON 078
__pmaintext                maintext     32C
__pstrings                 strings      001
__ptext1                   text1        332
__ptext2                   text2        38D
__ptext3                   text3        361
__ptext4                   text4        33F
__ptext5                   text5        32A
__size_of_EnterSleep       (abs)        000
__size_of_Initialize       (abs)        000
__size_of_MorseDisplay     (abs)        000
__size_of_MorseInit        (abs)        000
__size_of_MorseTableLookup (abs)        000
__size_of_main             (abs)        000
__stringbase               strings      006
__stringtab                strings      001
_main                      maintext     32C
btemp                      (abs)        07E
end_of_initialization      cinit        3FE
intlevel0                  functab      000
intlevel1                  functab      000
intlevel2                  functab      000
intlevel3                  functab      000
intlevel4                  functab      000
intlevel5                  functab      000
reset_vec                  reset_vec    000
start                      init         000
start_initialization       cinit        3F6
wtemp0                     (abs)        07E


FUNCTION INFORMATION:

 *************** function _main *****************
 Defined at:
		line 41 in file "Main.c"
 Parameters:    Size  Location     Type
		None
 Auto vars:     Size  Location     Type
		None
 Return value:  Size  Location     Type
                  1    wreg      void 
 Registers used:
		wreg, fsr0l, fsr0h, status,2, status,0, pclath, cstack
 Tracked objects:
		On entry : 
		On exit  : 
		Unchanged: 
 Data sizes:     COMMON   BANK0
      Params:         0       0
      Locals:         0       0
      Temps:          0       0
      Totals:         0       0
Total ram usage:        0 bytes
 Hardware stack levels required when called:    3
 This function calls:
		_EnterSleep
		_Initialize
		_MorseDisplay
		_MorseInit
 This function is called by:
		Startup code after reset
 This function uses a non-reentrant model


 *************** function _MorseInit *****************
 Defined at:
		line 144 in file "MorseTransmitter.c"
 Parameters:    Size  Location     Type
		None
 Auto vars:     Size  Location     Type
		None
 Return value:  Size  Location     Type
                  1    wreg      void 
 Registers used:
		wreg, fsr0l, fsr0h, status,2, status,0, pclath, cstack
 Tracked objects:
		On entry : 
		On exit  : 
		Unchanged: 
 Data sizes:     COMMON   BANK0
      Params:         0       0
      Locals:         0       0
      Temps:          0       0
      Totals:         0       0
Total ram usage:        0 bytes
 Hardware stack levels used:    1
 Hardware stack levels required when called:    2
 This function calls:
		_MorseTableLookup
 This function is called by:
		_main
 This function uses a non-reentrant model


 *************** function _MorseDisplay *****************
 Defined at:
		line 158 in file "MorseTransmitter.c"
 Parameters:    Size  Location     Type
		None
 Auto vars:     Size  Location     Type
		None
 Return value:  Size  Location     Type
                  1    wreg      void 
 Registers used:
		wreg, fsr0l, fsr0h, status,2, status,0, pclath, cstack
 Tracked objects:
		On entry : 
		On exit  : 
		Unchanged: 
 Data sizes:     COMMON   BANK0
      Params:         0       0
      Locals:         0       0
      Temps:          1       0
      Totals:         1       0
Total ram usage:        1 bytes
 Hardware stack levels used:    1
 Hardware stack levels required when called:    2
 This function calls:
		_MorseTableLookup
 This function is called by:
		_main
 This function uses a non-reentrant model


 *************** function _MorseTableLookup *****************
 Defined at:
		line 263 in file "MorseTransmitter.c"
 Parameters:    Size  Location     Type
  Letter          1    wreg     unsigned char 
 Auto vars:     Size  Location     Type
  Letter          1    1[COMMON] unsigned char 
 Return value:  Size  Location     Type
                  1    wreg      void 
 Registers used:
		wreg, fsr0l, fsr0h, status,2, status,0, pclath
 Tracked objects:
		On entry : 
		On exit  : 
		Unchanged: 
 Data sizes:     COMMON   BANK0
      Params:         0       0
      Locals:         1       0
      Temps:          1       0
      Totals:         2       0
Total ram usage:        2 bytes
 Hardware stack levels used:    2
 This function calls:
		Nothing
 This function is called by:
		_MorseInit
		_MorseDisplay
 This function uses a non-reentrant model


 *************** function _Initialize *****************
 Defined at:
		line 53 in file "Main.c"
 Parameters:    Size  Location     Type
		None
 Auto vars:     Size  Location     Type
		None
 Return value:  Size  Location     Type
                  1    wreg      void 
 Registers used:
		wreg, status,2, status,0
 Tracked objects:
		On entry : 
		On exit  : 
		Unchanged: 
 Data sizes:     COMMON   BANK0
      Params:         0       0
      Locals:         0       0
      Temps:          0       0
      Totals:         0       0
Total ram usage:        0 bytes
 Hardware stack levels used:    1
 This function calls:
		Nothing
 This function is called by:
		_main
 This function uses a non-reentrant model


 *************** function _EnterSleep *****************
 Defined at:
		line 131 in file "Main.c"
 Parameters:    Size  Location     Type
		None
 Auto vars:     Size  Location     Type
		None
 Return value:  Size  Location     Type
                  1    wreg      void 
 Registers used:
		None
 Tracked objects:
		On entry : 
		On exit  : 
		Unchanged: 
 Data sizes:     COMMON   BANK0
      Params:         0       0
      Locals:         0       0
      Temps:          0       0
      Totals:         0       0
Total ram usage:        0 bytes
 Hardware stack levels used:    1
 This function calls:
		Nothing
 This function is called by:
		_main
 This function uses a non-reentrant model



MODULE INFORMATION

Module		Function		Class		Link	Load	Size
MorseTransmitter.c
		_MorseDisplay  		CODE           	038D	0000	106
		_MorseInit     		CODE           	0332	0000	14
		_MorseTableLookup		CODE           	0361	0000	45

MorseTransmitter.c estimated size: 165

Main.c
		_main          		CODE           	032C	0000	7
		_EnterSleep    		CODE           	032A	0000	3
		_Initialize    		CODE           	033F	0000	35

Main.c estimated size: 45

shared
		_MorseTable    		STRING         	0046	0000	64
		__stringtab    		STRING         	0001	0000	7
		_Sentence      		STRING         	0085	0000	53
		_MorseTableLengths		STRING         	0007	0000	64
		__initialization		CODE           	03F6	0000	9

shared estimated size: 197

